:020000000000fe
:020001000001fc
:020002000002fa
:020003000002f9
:020004000003f7
:020005000004f5
:020006000005f3
:020007000005f2
:020008000006f0
:020009000007ee
:02000a000008ec
:02000b000009ea
:02000c000009e9
:02000d00000ae7
:02000e00000be5
:02000f00000ce3
:02001000000de1
:02001100000de0
:02001200000ede
:02001300000fdc
:020014000010da
:020015000010d9
:020016000011d7
:020017000012d5
:020018000013d3
:020019000014d1
:02001a000014d0
:02001b000015ce
:02001c000016cc
:02001d000017ca
:02001e000018c8
:02001f000018c7
:020020000019c5
:02002100001ac3
:02002200001bc1
:02002300001bc0
:02002400001cbe
:02002500001dbc
:02002600001eba
:02002700001fb8
:02002800001fb7
:020029000020b5
:02002a000021b3
:02002b000022b1
:02002c000023af
:02002d000023ae
:02002e000024ac
:02002f000025aa
:020030000026a8
:020031000026a7
:020032000027a5
:020033000028a3
:020034000029a1
:02003500002a9f
:02003600002a9e
:02003700002b9c
:02003800002c9a
:02003900002d98
:02003a00002e96
:02003b00002e95
:02003c00002f93
:02003d00003091
:02003e0000318f
:02003f0000318e
:0200400000328c
:0200410000338a
:02004200003488
:02004300003586
:02004400003585
:02004500003683
:02004600003781
:0200470000387f
:0200480000397d
:0200490000397c
:02004a00003a7a
:02004b00003b78
:02004c00003c76
:02004d00003c75
:02004e00003d73
:02004f00003e71
:02005000003f6f
:0200510000406d
:0200520000406c
:0200530000416a
:02005400004268
:02005500004366
:02005600004464
:02005700004463
:02005800004561
:0200590000465f
:02005a0000475d
:02005b0000475c
:02005c0000485a
:02005d00004958
:02005e00004a56
:02005f00004b54
:02006000004b53
:02006100004c51
:02006200004d4f
:02006300004e4d
:02006400004f4b
:02006500004f4a
:02006600005048
:02006700005146
:02006800005244
:02006900005243
:02006a00005341
:02006b0000543f
:02006c0000553d
:02006d0000563b
:02006e0000563a
:02006f00005738
:02007000005836
:02007100005934
:02007200005a32
:02007300005a31
:02007400005b2f
:02007500005c2d
:02007600005d2b
:02007700005d2a
:02007800005e28
:02007900005f26
:02007a00006024
:02007b00006122
:02007c00006121
:02007d0000621f
:02007e0000631d
:02007f0000641b
:02008000006519
:02008100006518
:02008200006616
:02008300006714
:02008400006812
:02008500006811
:0200860000690f
:02008700006a0d
:02008800006b0b
:02008900006c09
:02008a00006c08
:02008b00006d06
:02008c00006e04
:02008d00006f02
:02008e00007000
:02008f000070ff
:020090000071fd
:020091000072fb
:020092000073f9
:020093000073f8
:020094000074f6
:020095000075f4
:020096000076f2
:020097000077f0
:020098000077ef
:020099000078ed
:02009a000079eb
:02009b00007ae9
:02009c00007be7
:02009d00007be6
:02009e00007ce4
:02009f00007de2
:0200a000007ee0
:0200a100007edf
:0200a200007fdd
:0200a3000080db
:0200a4000081d9
:0200a5000082d7
:0200a6000082d6
:0200a7000083d4
:0200a8000084d2
:0200a9000085d0
:0200aa000086ce
:0200ab000086cd
:0200ac000087cb
:0200ad000088c9
:0200ae000089c7
:0200af000089c6
:0200b000008ac4
:0200b100008bc2
:0200b200008cc0
:0200b300008dbe
:0200b400008dbd
:0200b500008ebb
:0200b600008fb9
:0200b7000090b7
:0200b8000091b5
:0200b9000091b4
:0200ba000092b2
:0200bb000093b0
:0200bc000094ae
:0200bd000094ad
:0200be000095ab
:0200bf000096a9
:0200c0000097a7
:0200c1000098a5
:0200c2000098a4
:0200c3000099a2
:0200c400009aa0
:0200c500009b9e
:0200c600009c9c
:0200c700009c9b
:0200c800009d99
:0200c900009e97
:0200ca00009f95
:0200cb00009f94
:0200cc0000a092
:0200cd0000a190
:0200ce0000a28e
:0200cf0000a38c
:0200d00000a38b
:0200d10000a489
:0200d20000a587
:0200d30000a685
:0200d40000a684
:0200d50000a782
:0200d60000a880
:0200d70000a97e
:0200d80000aa7c
:0200d90000aa7b
:0200da0000ab79
:0200db0000ac77
:0200dc0000ad75
:0200dd0000ae73
:0200de0000ae72
:0200df0000af70
:0200e00000b06e
:0200e10000b16c
:0200e20000b16b
:0200e30000b269
:0200e40000b367
:0200e50000b465
:0200e60000b563
:0200e70000b562
:0200e80000b660
:0200e90000b75e
:0200ea0000b85c
:0200eb0000b95a
:0200ec0000b959
:0200ed0000ba57
:0200ee0000bb55
:0200ef0000bc53
:0200f00000bc52
:0200f10000bd50
:0200f20000be4e
:0200f30000bf4c
:0200f40000c04a
:0200f50000c049
:0200f60000c147
:0200f70000c245
:0200f80000c343
:0200f90000c441
:0200fa0000c440
:0200fb0000c53e
:0200fc0000c63c
:0200fd0000c73a
:0200fe0000c739
:0200ff0000c837
:0201000000c934
:0201010000ca32
:0201020000cb30
:0201030000cb2f
:0201040000cc2d
:0201050000cd2b
:0201060000ce29
:0201070000cf27
:0201080000cf26
:0201090000d024
:02010a0000d122
:02010b0000d220
:02010c0000d21f
:02010d0000d31d
:02010e0000d41b
:02010f0000d519
:0201100000d617
:0201110000d616
:0201120000d714
:0201130000d812
:0201140000d910
:0201150000da0e
:0201160000da0d
:0201170000db0b
:0201180000dc09
:0201190000dd07
:02011a0000dd06
:02011b0000de04
:02011c0000df02
:02011d0000e000
:02011e0000e1fe
:02011f0000e1fd
:0201200000e2fb
:0201210000e3f9
:0201220000e4f7
:0201230000e5f5
:0201240000e5f4
:0201250000e6f2
:0201260000e7f0
:0201270000e8ee
:0201280000e8ed
:0201290000e9eb
:02012a0000eae9
:02012b0000ebe7
:02012c0000ece5
:02012d0000ece4
:02012e0000ede2
:02012f0000eee0
:0201300000efde
:0201310000f0dc
:0201320000f0db
:0201330000f1d9
:0201340000f2d7
:0201350000f3d5
:0201360000f3d4
:0201370000f4d2
:0201380000f5d0
:0201390000f6ce
:02013a0000f7cc
:02013b0000f7cb
:02013c0000f8c9
:02013d0000f9c7
:02013e0000fac5
:02013f0000fbc3
:0201400000fbc2
:0201410000fcc0
:0201420000fdbe
:0201430000febc
:0201440000febb
:0201450000ffb9
:020146000100b6
:020147000101b4
:020148000102b2
:020149000102b1
:02014a000103af
:02014b000104ad
:02014c000105ab
:02014d000106a9
:02014e000106a8
:02014f000107a6
:020150000108a4
:020151000109a2
:020152000109a1
:02015300010a9f
:02015400010b9d
:02015500010c9b
:02015600010d99
:02015700010d98
:02015800010e96
:02015900010f94
:02015a00011092
:02015b00011190
:02015c0001118f
:02015d0001128d
:02015e0001138b
:02015f00011489
:02016000011488
:02016100011586
:02016200011684
:02016300011782
:02016400011880
:0201650001187f
:0201660001197d
:02016700011a7b
:02016800011b79
:02016900011c77
:02016a00011c76
:02016b00011d74
:02016c00011e72
:02016d00011f70
:02016e00011f6f
:02016f0001206d
:0201700001216b
:02017100012269
:02017200012367
:02017300012366
:02017400012464
:02017500012562
:02017600012660
:0201770001275e
:0201780001275d
:0201790001285b
:02017a00012959
:02017b00012a57
:02017c00012a56
:02017d00012b54
:02017e00012c52
:02017f00012d50
:02018000012e4e
:02018100012e4d
:02018200012f4b
:02018300013049
:02018400013147
:02018500013245
:02018600013244
:02018700013342
:02018800013440
:0201890001353e
:02018a0001353d
:02018b0001363b
:02018c00013739
:02018d00013837
:02018e00013935
:02018f00013934
:02019000013a32
:02019100013b30
:02019200013c2e
:02019300013d2c
:02019400013d2b
:02019500013e29
:02019600013f27
:02019700014025
:02019800014024
:02019900014122
:02019a00014220
:02019b0001431e
:02019c0001441c
:02019d0001441b
:02019e00014519
:02019f00014617
:0201a000014715
:0201a100014714
:0201a200014812
:0201a300014910
:0201a400014a0e
:0201a500014b0c
:0201a600014b0b
:0201a700014c09
:0201a800014d07
:0201a900014e05
:0201aa00014f03
:0201ab00014f02
:0201ac00015000
:0201ad000151fe
:0201ae000152fc
:0201af000152fb
:0201b0000153f9
:0201b1000154f7
:0201b2000155f5
:0201b3000156f3
:0201b4000156f2
:0201b5000157f0
:0201b6000158ee
:0201b7000159ec
:0201b800015aea
:0201b900015ae9
:0201ba00015be7
:0201bb00015ce5
:0201bc00015de3
:0201bd00015de2
:0201be00015ee0
:0201bf00015fde
:0201c0000160dc
:0201c1000161da
:0201c2000161d9
:0201c3000162d7
:0201c4000163d5
:0201c5000164d3
:0201c6000165d1
:0201c7000165d0
:0201c8000166ce
:0201c9000167cc
:0201ca000168ca
:0201cb000168c9
:0201cc000169c7
:0201cd00016ac5
:0201ce00016bc3
:0201cf00016cc1
:0201d000016cc0
:0201d100016dbe
:0201d200016ebc
:0201d300016fba
:0201d4000170b8
:0201d5000170b7
:0201d6000171b5
:0201d7000172b3
:0201d8000173b1
:0201d9000173b0
:0201da000174ae
:0201db000175ac
:0201dc000176aa
:0201dd000177a8
:0201de000177a7
:0201df000178a5
:0201e0000179a3
:0201e100017aa1
:0201e200017b9f
:0201e300017b9e
:0201e400017c9c
:0201e500017d9a
:0201e600017e98
:0201e700017e97
:0201e800017f95
:0201e900018093
:0201ea00018191
:0201eb0001828f
:0201ec0001828e
:0201ed0001838c
:0201ee0001848a
:0201ef00018588
:0201f000018686
:0201f100018685
:0201f200018783
:0201f300018881
:0201f40001897f
:0201f50001897e
:0201f600018a7c
:0201f700018b7a
:0201f800018c78
:0201f900018d76
:0201fa00018d75
:0201fb00018e73
:0201fc00018f71
:0201fd0001906f
:0201fe0001916d
:0201ff0001916c
:02020000019269
:02020100019367
:02020200019465
:02020300019464
:02020400019562
:02020500019660
:0202060001975e
:0202070001985c
:0202080001985b
:02020900019959
:02020a00019a57
:02020b00019b55
:02020c00019c53
:02020d00019c52
:02020e00019d50
:02020f00019e4e
:02021000019f4c
:02021100019f4b
:0202120001a049
:0202130001a147
:0202140001a245
:0202150001a343
:0202160001a342
:0202170001a440
:0202180001a53e
:0202190001a63c
:02021a0001a73a
:02021b0001a739
:02021c0001a837
:02021d0001a935
:02021e0001aa33
:02021f0001aa32
:0202200001ab30
:0202210001ac2e
:0202220001ad2c
:0202230001ae2a
:0202240001ae29
:0202250001af27
:0202260001b025
:0202270001b123
:0202280001b221
:0202290001b220
:02022a0001b31e
:02022b0001b41c
:02022c0001b51a
:02022d0001b519
:02022e0001b617
:02022f0001b715
:0202300001b813
:0202310001b911
:0202320001b910
:0202330001ba0e
:0202340001bb0c
:0202350001bc0a
:0202360001bd08
:0202370001bd07
:0202380001be05
:0202390001bf03
:02023a0001c001
:02023b0001c000
:02023c0001c1fe
:02023d0001c2fc
:02023e0001c3fa
:02023f0001c4f8
:0202400001c4f7
:0202410001c5f5
:0202420001c6f3
:0202430001c7f1
:0202440001c8ef
:0202450001c8ee
:0202460001c9ec
:0202470001caea
:0202480001cbe8
:0202490001cbe7
:02024a0001cce5
:02024b0001cde3
:02024c0001cee1
:02024d0001cfdf
:02024e0001cfde
:02024f0001d0dc
:0202500001d1da
:0202510001d2d8
:0202520001d2d7
:0202530001d3d5
:0202540001d4d3
:0202550001d5d1
:0202560001d6cf
:0202570001d6ce
:0202580001d7cc
:0202590001d8ca
:02025a0001d9c8
:02025b0001dac6
:02025c0001dac5
:02025d0001dbc3
:02025e0001dcc1
:02025f0001ddbf
:0202600001ddbe
:0202610001debc
:0202620001dfba
:0202630001e0b8
:0202640001e1b6
:0202650001e1b5
:0202660001e2b3
:0202670001e3b1
:0202680001e4af
:0202690001e5ad
:02026a0001e5ac
:02026b0001e6aa
:02026c0001e7a8
:02026d0001e8a6
:02026e0001e8a5
:02026f0001e9a3
:0202700001eaa1
:0202710001eb9f
:0202720001ec9d
:0202730001ec9c
:0202740001ed9a
:0202750001ee98
:0202760001ef96
:0202770001f094
:0202780001f093
:0202790001f191
:02027a0001f28f
:02027b0001f38d
:02027c0001f38c
:02027d0001f48a
:02027e0001f588
:02027f0001f686
:0202800001f784
:0202810001f783
:0202820001f881
:0202830001f97f
:0202840001fa7d
:0202850001fb7b
:0202860001fb7a
:0202870001fc78
:0202880001fd76
:0202890001fe74
:02028a0001fe73
:02028b0001ff71
:02028c0002006e
:02028d0002016c
:02028e0002026a
:02028f00020269
:02029000020367
:02029100020465
:02029200020563
:02029300020661
:02029400020660
:0202950002075e
:0202960002085c
:0202970002095a
:02029800020959
:02029900020a57
:02029a00020b55
:02029b00020c53
:02029c00020d51
:02029d00020d50
:02029e00020e4e
:02029f00020f4c
:0202a00002104a
:0202a100021148
:0202a200021147
:0202a300021245
:0202a400021343
:0202a500021441
:0202a600021440
:0202a70002153e
:0202a80002163c
:0202a90002173a
:0202aa00021838
:0202ab00021837
:0202ac00021935
:0202ad00021a33
:0202ae00021b31
:0202af00021c2f
:0202b000021c2e
:0202b100021d2c
:0202b200021e2a
:0202b300021f28
:0202b400021f27
:0202b500022025
:0202b600022123
:0202b700022221
:0202b80002231f
:0202b90002231e
:0202ba0002241c
:0202bb0002251a
:0202bc00022618
:0202bd00022716
:0202be00022715
:0202bf00022813
:0202c000022911
:0202c100022a0f
:0202c200022a0e
:0202c300022b0c
:0202c400022c0a
:0202c500022d08
:0202c600022e06
:0202c700022e05
:0202c800022f03
:0202c900023001
:0202ca000231ff
:0202cb000232fd
:0202cc000232fc
:0202cd000233fa
:0202ce000234f8
:0202cf000235f6
:0202d0000235f5
:0202d1000236f3
:0202d2000237f1
:0202d3000238ef
:0202d4000239ed
:0202d5000239ec
:0202d600023aea
:0202d700023be8
:0202d800023ce6
:0202d900023de4
:0202da00023de3
:0202db00023ee1
:0202dc00023fdf
:0202dd000240dd
:0202de000240dc
:0202df000241da
:0202e0000242d8
:0202e1000243d6
:0202e2000244d4
:0202e3000244d3
:0202e4000245d1
:0202e5000246cf
:0202e6000247cd
:0202e7000248cb
:0202e8000248ca
:0202e9000249c8
:0202ea00024ac6
:0202eb00024bc4
:0202ec00024bc3
:0202ed00024cc1
:0202ee00024dbf
:0202ef00024ebd
:0202f000024fbb
:0202f100024fba
:0202f2000250b8
:0202f3000251b6
:0202f4000252b4
:0202f5000252b3
:0202f6000253b1
:0202f7000254af
:0202f8000255ad
:0202f9000256ab
:0202fa000256aa
:0202fb000257a8
:0202fc000258a6
:0202fd000259a4
:0202fe00025aa2
:0202ff00025aa1
:02030000025b9e
:02030100025c9c
:02030200025d9a
:02030300025d99
:02030400025e97
:02030500025f95
:02030600026093
:02030700026191
:02030800026190
:0203090002628e
:02030a0002638c
:02030b0002648a
:02030c00026588
:02030d00026587
:02030e00026685
:02030f00026783
:02031000026881
:02031100026880
:0203120002697e
:02031300026a7c
:02031400026b7a
:02031500026c78
:02031600026c77
:02031700026d75
:02031800026e73
:02031900026f71
:02031a0002706f
:02031b0002706e
:02031c0002716c
:02031d0002726a
:02031e00027368
:02031f00027367
:02032000027465
:02032100027563
:02032200027661
:0203230002775f
:0203240002775e
:0203250002785c
:0203260002795a
:02032700027a58
:02032800027b56
:02032900027b55
:02032a00027c53
:02032b00027d51
:02032c00027e4f
:02032d00027e4e
:02032e00027f4c
:02032f0002804a
:02033000028148
:02033100028246
:02033200028245
:02033300028343
:02033400028441
:0203350002853f
:0203360002863d
:0203370002863c
:0203380002873a
:02033900028838
:02033a00028936
:02033b00028935
:02033c00028a33
:02033d00028b31
:02033e00028c2f
:02033f00028d2d
:02034000028d2c
:02034100028e2a
:02034200028f28
:02034300029026
:02034400029124
:02034500029123
:02034600029221
:0203470002931f
:0203480002941d
:0203490002941c
:02034a0002951a
:02034b00029618
:02034c00029716
:02034d00029814
:02034e00029813
:02034f00029911
:02035000029a0f
:02035100029b0d
:02035200029c0b
:02035300029c0a
:02035400029d08
:02035500029e06
:02035600029f04
:02035700029f03
:0203580002a001
:0203590002a1ff
:02035a0002a2fd
:02035b0002a3fb
:02035c0002a3fa
:02035d0002a4f8
:02035e0002a5f6
:02035f0002a6f4
:0203600002a7f2
:0203610002a7f1
:0203620002a8ef
:0203630002a9ed
:0203640002aaeb
:0203650002aaea
:0203660002abe8
:0203670002ace6
:0203680002ade4
:0203690002aee2
:02036a0002aee1
:02036b0002afdf
:02036c0002b0dd
:02036d0002b1db
:02036e0002b2d9
:02036f0002b2d8
:0203700002b3d6
:0203710002b4d4
:0203720002b5d2
:0203730002b5d1
:0203740002b6cf
:0203750002b7cd
:0203760002b8cb
:0203770002b9c9
:0203780002b9c8
:0203790002bac6
:02037a0002bbc4
:02037b0002bcc2
:02037c0002bdc0
:02037d0002bdbf
:02037e0002bebd
:02037f0002bfbb
:0203800002c0b9
:0203810002c0b8
:0203820002c1b6
:0203830002c2b4
:0203840002c3b2
:0203850002c4b0
:0203860002c4af
:0203870002c5ad
:0203880002c6ab
:0203890002c7a9
:02038a0002c7a8
:02038b0002c8a6
:02038c0002c9a4
:02038d0002caa2
:02038e0002cba0
:02038f0002cb9f
:0203900002cc9d
:0203910002cd9b
:0203920002ce99
:0203930002cf97
:0203940002cf96
:0203950002d094
:0203960002d192
:0203970002d290
:0203980002d28f
:0203990002d38d
:02039a0002d48b
:02039b0002d589
:02039c0002d687
:02039d0002d686
:02039e0002d784
:02039f0002d882
:0203a00002d980
:0203a10002da7e
:0203a20002da7d
:0203a30002db7b
:0203a40002dc79
:0203a50002dd77
:0203a60002dd76
:0203a70002de74
:0203a80002df72
:0203a90002e070
:0203aa0002e16e
:0203ab0002e16d
:0203ac0002e26b
:0203ad0002e369
:0203ae0002e467
:0203af0002e565
:0203b00002e564
:0203b10002e662
:0203b20002e760
:0203b30002e85e
:0203b40002e85d
:0203b50002e95b
:0203b60002ea59
:0203b70002eb57
:0203b80002ec55
:0203b90002ec54
:0203ba0002ed52
:0203bb0002ee50
:0203bc0002ef4e
:0203bd0002f04c
:0203be0002f04b
:0203bf0002f149
:0203c00002f247
:0203c10002f345
:0203c20002f344
:0203c30002f442
:0203c40002f540
:0203c50002f63e
:0203c60002f73c
:0203c70002f73b
:0203c80002f839
:0203c90002f937
:0203ca0002fa35
:0203cb0002fb33
:0203cc0002fb32
:0203cd0002fc30
:0203ce0002fd2e
:0203cf0002fe2c
:0203d00002fe2b
:0203d10002ff29
:0203d200030026
:0203d300030124
:0203d400030222
:0203d500030221
:0203d60003031f
:0203d70003041d
:0203d80003051b
:0203d900030619
:0203da00030618
:0203db00030716
:0203dc00030814
:0203dd00030912
:0203de00030911
:0203df00030a0f
:0203e000030b0d
:0203e100030c0b
:0203e200030d09
:0203e300030d08
:0203e400030e06
:0203e500030f04
:0203e600031002
:0203e700031100
:0203e8000311ff
:0203e9000312fd
:0203ea000313fb
:0203eb000314f9
:0203ec000314f8
:0203ed000315f6
:0203ee000316f4
:0203ef000317f2
:0203f0000318f0
:0203f1000318ef
:0203f2000319ed
:0203f300031aeb
:0203f400031be9
:0203f500031ce7
:0203f600031ce6
:0203f700031de4
:0203f800031ee2
:0203f900031fe0
:0203fa00031fdf
:0203fb000320dd
:0203fc000321db
:0203fd000322d9
:0203fe000323d7
:0203ff000323d6
:020400000324d3
:020401000325d1
:020402000326cf
:020403000326ce
:020404000327cc
:020405000328ca
:020406000329c8
:02040700032ac6
:02040800032ac5
:02040900032bc3
:02040a00032cc1
:02040b00032dbf
:02040c00032ebd
:02040d00032ebc
:02040e00032fba
:02040f000330b8
:020410000331b6
:020411000331b5
:020412000332b3
:020413000333b1
:020414000334af
:020415000335ad
:020416000335ac
:020417000336aa
:020418000337a8
:020419000338a6
:02041a000339a4
:02041b000339a3
:02041c00033aa1
:02041d00033b9f
:02041e00033c9d
:02041f00033c9c
:02042000033d9a
:02042100033e98
:02042200033f96
:02042300034094
:02042400034093
:02042500034191
:0204260003428f
:0204270003438d
:0204280003448b
:0204290003448a
:02042a00034588
:02042b00034686
:02042c00034784
:02042d00034783
:02042e00034881
:02042f0003497f
:02043000034a7d
:02043100034b7b
:02043200034b7a
:02043300034c78
:02043400034d76
:02043500034e74
:02043600034f72
:02043700034f71
:0204380003506f
:0204390003516d
:02043a0003526b
:02043b0003526a
:02043c00035368
:02043d00035466
:02043e00035564
:02043f00035662
:02044000035661
:0204410003575f
:0204420003585d
:0204430003595b
:02044400035a59
:02044500035a58
:02044600035b56
:02044700035c54
:02044800035d52
:02044900035d51
:02044a00035e4f
:02044b00035f4d
:02044c0003604b
:02044d00036149
:02044e00036148
:02044f00036246
:02045000036344
:02045100036442
:02045200036540
:0204530003653f
:0204540003663d
:0204550003673b
:02045600036839
:02045700036838
:02045800036936
:02045900036a34
:02045a00036b32
:02045b00036c30
:02045c00036c2f
:02045d00036d2d
:02045e00036e2b
:02045f00036f29
:02046000037027
:02046100037026
:02046200037124
:02046300037222
:02046400037320
:0204650003731f
:0204660003741d
:0204670003751b
:02046800037619
:02046900037717
:02046a00037716
:02046b00037814
:02046c00037912
:02046d00037a10
:02046e00037b0e
:02046f00037b0d
:02047000037c0b
:02047100037d09
:02047200037e07
:02047300037e06
:02047400037f04
:02047500038002
:02047600038100
:020477000382fe
:020478000382fd
:020479000383fb
:02047a000384f9
:02047b000385f7
:02047c000385f6
:02047d000386f4
:02047e000387f2
:02047f000388f0
:020480000389ee
:020481000389ed
:02048200038aeb
:02048300038be9
:02048400038ce7
:02048500038de5
:02048600038de4
:02048700038ee2
:02048800038fe0
:020489000390de
:02048a000390dd
:02048b000391db
:02048c000392d9
:02048d000393d7
:02048e000394d5
:02048f000394d4
:020490000395d2
:020491000396d0
:020492000397ce
:020493000398cc
:020494000398cb
:020495000399c9
:02049600039ac7
:02049700039bc5
:02049800039bc4
:02049900039cc2
:02049a00039dc0
:02049b00039ebe
:02049c00039fbc
:02049d00039fbb
:02049e0003a0b9
:02049f0003a1b7
:0204a00003a2b5
:0204a10003a3b3
:0204a20003a3b2
:0204a30003a4b0
:0204a40003a5ae
:0204a50003a6ac
:0204a60003a6ab
:0204a70003a7a9
:0204a80003a8a7
:0204a90003a9a5
:0204aa0003aaa3
:0204ab0003aaa2
:0204ac0003aba0
:0204ad0003ac9e
:0204ae0003ad9c
:0204af0003ae9a
:0204b00003ae99
:0204b10003af97
:0204b20003b095
:0204b30003b193
:0204b40003b192
:0204b50003b290
:0204b60003b38e
:0204b70003b48c
:0204b80003b58a
:0204b90003b589
:0204ba0003b687
:0204bb0003b785
:0204bc0003b883
:0204bd0003b981
:0204be0003b980
:0204bf0003ba7e
:0204c00003bb7c
:0204c10003bc7a
:0204c20003bc79
:0204c30003bd77
:0204c40003be75
:0204c50003bf73
:0204c60003c071
:0204c70003c070
:0204c80003c16e
:0204c90003c26c
:0204ca0003c36a
:0204cb0003c468
:0204cc0003c467
:0204cd0003c565
:0204ce0003c663
:0204cf0003c761
:0204d00003c760
:0204d10003c85e
:0204d20003c95c
:0204d30003ca5a
:0204d40003cb58
:0204d50003cb57
:0204d60003cc55
:0204d70003cd53
:0204d80003ce51
:0204d90003cf4f
:0204da0003cf4e
:0204db0003d04c
:0204dc0003d14a
:0204dd0003d248
:0204de0003d247
:0204df0003d345
:0204e00003d443
:0204e10003d541
:0204e20003d63f
:0204e30003d63e
:0204e40003d73c
:0204e50003d83a
:0204e60003d938
:0204e70003d937
:0204e80003da35
:0204e90003db33
:0204ea0003dc31
:0204eb0003dd2f
:0204ec0003dd2e
:0204ed0003de2c
:0204ee0003df2a
:0204ef0003e028
:0204f00003e126
:0204f10003e125
:0204f20003e223
:0204f30003e321
:0204f40003e41f
:0204f50003e41e
:0204f60003e51c
:0204f70003e61a
:0204f80003e718
:0204f90003e816
:0204fa0003e815
:0204fb0003e913
:0204fc0003ea11
:0204fd0003eb0f
:0204fe0003ec0d
:0204ff0003ec0c
:0205000003ed09
:0205010003ee07
:0205020003ef05
:0205030003ef04
:0205040003f002
:0205050003f100
:0205060003f2fe
:0205070003f3fc
:0205080003f3fb
:0205090003f4f9
:02050a0003f5f7
:02050b0003f6f5
:02050c0003f7f3
:02050d0003f7f2
:02050e0003f8f0
:02050f0003f9ee
:0205100003faec
:0205110003faeb
:0205120003fbe9
:0205130003fce7
:0205140003fde5
:0205150003fee3
:0205160003fee2
:0205170003ffe0
:020518000400dd
:020519000401db
:02051a000402d9
:02051b000402d8
:02051c000403d6
:02051d000404d4
:02051e000405d2
:02051f000405d1
:020520000406cf
:020521000407cd
:020522000408cb
:020523000409c9
:020524000409c8
:02052500040ac6
:02052600040bc4
:02052700040cc2
:02052800040dc0
:02052900040dbf
:02052a00040ebd
:02052b00040fbb
:02052c000410b9
:02052d000410b8
:02052e000411b6
:02052f000412b4
:020530000413b2
:020531000414b0
:020532000414af
:020533000415ad
:020534000416ab
:020535000417a9
:020536000418a7
:020537000418a6
:020538000419a4
:02053900041aa2
:02053a00041ba0
:02053b00041b9f
:02053c00041c9d
:02053d00041d9b
:02053e00041e99
:02053f00041f97
:02054000041f96
:02054100042094
:02054200042192
:02054300042290
:0205440004238e
:0205450004238d
:0205460004248b
:02054700042589
:02054800042687
:02054900042686
:02054a00042784
:02054b00042882
:02054c00042980
:02054d00042a7e
:02054e00042a7d
:02054f00042b7b
:02055000042c79
:02055100042d77
:02055200042d76
:02055300042e74
:02055400042f72
:02055500043070
:0205560004316e
:0205570004316d
:0205580004326b
:02055900043369
:02055a00043467
:02055b00043565
:02055c00043564
:02055d00043662
:02055e00043760
:02055f0004385e
:0205600004385d
:0205610004395b
:02056200043a59
:02056300043b57
:02056400043c55
:02056500043c54
:02056600043d52
:02056700043e50
:02056800043f4e
:0205690004404c
:02056a0004404b
:02056b00044149
:02056c00044247
:02056d00044345
:02056e00044344
:02056f00044442
:02057000044540
:0205710004463e
:0205720004473c
:0205730004473b
:02057400044839
:02057500044937
:02057600044a35
:02057700044b33
:02057800044b32
:02057900044c30
:02057a00044d2e
:02057b00044e2c
:02057c00044e2b
:02057d00044f29
:02057e00045027
:02057f00045125
:02058000045223
:02058100045222
:02058200045320
:0205830004541e
:0205840004551c
:0205850004561a
:02058600045619
:02058700045717
:02058800045815
:02058900045913
:02058a00045912
:02058b00045a10
:02058c00045b0e
:02058d00045c0c
:02058e00045d0a
:02058f00045d09
:02059000045e07
:02059100045f05
:02059200046003
:02059300046101
:02059400046100
:020595000462fe
:020596000463fc
:020597000464fa
:020598000464f9
:020599000465f7
:02059a000466f5
:02059b000467f3
:02059c000468f1
:02059d000468f0
:02059e000469ee
:02059f00046aec
:0205a000046bea
:0205a100046be9
:0205a200046ce7
:0205a300046de5
:0205a400046ee3
:0205a500046fe1
:0205a600046fe0
:0205a7000470de
:0205a8000471dc
:0205a9000472da
:0205aa000473d8
:0205ab000473d7
:0205ac000474d5
:0205ad000475d3
:0205ae000476d1
:0205af000476d0
:0205b0000477ce
:0205b1000478cc
:0205b2000479ca
:0205b300047ac8
:0205b400047ac7
:0205b500047bc5
:0205b600047cc3
:0205b700047dc1
:0205b800047ebf
:0205b900047ebe
:0205ba00047fbc
:0205bb000480ba
:0205bc000481b8
:0205bd000481b7
:0205be000482b5
:0205bf000483b3
:0205c0000484b1
:0205c1000485af
:0205c2000485ae
:0205c3000486ac
:0205c4000487aa
:0205c5000488a8
:0205c6000489a6
:0205c7000489a5
:0205c800048aa3
:0205c900048ba1
:0205ca00048c9f
:0205cb00048c9e
:0205cc00048d9c
:0205cd00048e9a
:0205ce00048f98
:0205cf00049096
:0205d000049095
:0205d100049193
:0205d200049291
:0205d30004938f
:0205d40004948d
:0205d50004948c
:0205d60004958a
:0205d700049688
:0205d800049786
:0205d900049785
:0205da00049883
:0205db00049981
:0205dc00049a7f
:0205dd00049b7d
:0205de00049b7c
:0205df00049c7a
:0205e000049d78
:0205e100049e76
:0205e200049f74
:0205e300049f73
:0205e40004a071
:0205e50004a16f
:0205e60004a26d
:0205e70004a26c
:0205e80004a36a
:0205e90004a468
:0205ea0004a566
:0205eb0004a664
:0205ec0004a663
:0205ed0004a761
:0205ee0004a85f
:0205ef0004a95d
:0205f00004aa5b
:0205f10004aa5a
:0205f20004ab58
:0205f30004ac56
:0205f40004ad54
:0205f50004ad53
:0205f60004ae51
:0205f70004af4f
:0205f80004b04d
:0205f90004b14b
:0205fa0004b14a
:0205fb0004b248
:0205fc0004b346
:0205fd0004b444
:0205fe0004b443
:0205ff0004b541
:0206000004b63e
:0206010004b73c
:0206020004b83a
:0206030004b839
:0206040004b937
:0206050004ba35
:0206060004bb33
:0206070004bc31
:0206080004bc30
:0206090004bd2e
:02060a0004be2c
:02060b0004bf2a
:02060c0004bf29
:02060d0004c027
:02060e0004c125
:02060f0004c223
:0206100004c321
:0206110004c320
:0206120004c41e
:0206130004c51c
:0206140004c61a
:0206150004c718
:0206160004c717
:0206170004c815
:0206180004c913
:0206190004ca11
:02061a0004ca10
:02061b0004cb0e
:02061c0004cc0c
:02061d0004cd0a
:02061e0004ce08
:02061f0004ce07
:0206200004cf05
:0206210004d003
:0206220004d101
:0206230004d2ff
:0206240004d2fe
:0206250004d3fc
:0206260004d4fa
:0206270004d5f8
:0206280004d5f7
:0206290004d6f5
:02062a0004d7f3
:02062b0004d8f1
:02062c0004d9ef
:02062d0004d9ee
:02062e0004daec
:02062f0004dbea
:0206300004dce8
:0206310004dde6
:0206320004dde5
:0206330004dee3
:0206340004dfe1
:0206350004e0df
:0206360004e0de
:0206370004e1dc
:0206380004e2da
:0206390004e3d8
:02063a0004e4d6
:02063b0004e4d5
:02063c0004e5d3
:02063d0004e6d1
:02063e0004e7cf
:02063f0004e8cd
:0206400004e8cc
:0206410004e9ca
:0206420004eac8
:0206430004ebc6
:0206440004ebc5
:0206450004ecc3
:0206460004edc1
:0206470004eebf
:0206480004efbd
:0206490004efbc
:02064a0004f0ba
:02064b0004f1b8
:02064c0004f2b6
:02064d0004f2b5
:02064e0004f3b3
:02064f0004f4b1
:0206500004f5af
:0206510004f6ad
:0206520004f6ac
:0206530004f7aa
:0206540004f8a8
:0206550004f9a6
:0206560004faa4
:0206570004faa3
:0206580004fba1
:0206590004fc9f
:02065a0004fd9d
:02065b0004fd9c
:02065c0004fe9a
:02065d0004ff98
:02065e00050095
:02065f00050193
:02066000050192
:02066100050290
:0206620005038e
:0206630005048c
:0206640005058a
:02066500050589
:02066600050687
:02066700050785
:02066800050883
:02066900050882
:02066a00050980
:02066b00050a7e
:02066c00050b7c
:02066d00050c7a
:02066e00050c79
:02066f00050d77
:02067000050e75
:02067100050f73
:02067200051071
:02067300051070
:0206740005116e
:0206750005126c
:0206760005136a
:02067700051369
:02067800051467
:02067900051565
:02067a00051663
:02067b00051761
:02067c00051760
:02067d0005185e
:02067e0005195c
:02067f00051a5a
:02068000051b58
:02068100051b57
:02068200051c55
:02068300051d53
:02068400051e51
:02068500051e50
:02068600051f4e
:0206870005204c
:0206880005214a
:02068900052248
:02068a00052247
:02068b00052345
:02068c00052443
:02068d00052541
:02068e0005263f
:02068f0005263e
:0206900005273c
:0206910005283a
:02069200052938
:02069300052937
:02069400052a35
:02069500052b33
:02069600052c31
:02069700052d2f
:02069800052d2e
:02069900052e2c
:02069a00052f2a
:02069b00053028
:02069c00053027
:02069d00053125
:02069e00053223
:02069f00053321
:0206a00005341f
:0206a10005341e
:0206a20005351c
:0206a30005361a
:0206a400053718
:0206a500053816
:0206a600053815
:0206a700053913
:0206a800053a11
:0206a900053b0f
:0206aa00053b0e
:0206ab00053c0c
:0206ac00053d0a
:0206ad00053e08
:0206ae00053f06
:0206af00053f05
:0206b000054003
:0206b100054101
:0206b2000542ff
:0206b3000543fd
:0206b4000543fc
:0206b5000544fa
:0206b6000545f8
:0206b7000546f6
:0206b8000546f5
:0206b9000547f3
:0206ba000548f1
:0206bb000549ef
:0206bc00054aed
:0206bd00054aec
:0206be00054bea
:0206bf00054ce8
:0206c000054de6
:0206c100054ee4
:0206c200054ee3
:0206c300054fe1
:0206c4000550df
:0206c5000551dd
:0206c6000551dc
:0206c7000552da
:0206c8000553d8
:0206c9000554d6
:0206ca000555d4
:0206cb000555d3
:0206cc000556d1
:0206cd000557cf
:0206ce000558cd
:0206cf000559cb
:0206d0000559ca
:0206d100055ac8
:0206d200055bc6
:0206d300055cc4
:0206d400055cc3
:0206d500055dc1
:0206d600055ebf
:0206d700055fbd
:0206d8000560bb
:0206d9000560ba
:0206da000561b8
:0206db000562b6
:0206dc000563b4
:0206dd000563b3
:0206de000564b1
:0206df000565af
:0206e0000566ad
:0206e1000567ab
:0206e2000567aa
:0206e3000568a8
:0206e4000569a6
:0206e500056aa4
:0206e600056ba2
:0206e700056ba1
:0206e800056c9f
:0206e900056d9d
:0206ea00056e9b
:0206eb00056e9a
:0206ec00056f98
:0206ed00057096
:0206ee00057194
:0206ef00057292
:0206f000057291
:0206f10005738f
:0206f20005748d
:0206f30005758b
:0206f400057689
:0206f500057688
:0206f600057786
:0206f700057884
:0206f800057982
:0206f900057981
:0206fa00057a7f
:0206fb00057b7d
:0206fc00057c7b
:0206fd00057d79
:0206fe00057d78
:0206ff00057e76
:02070000057f73
:02070100058071
:0207020005816f
:0207030005816e
:0207040005826c
:0207050005836a
:02070600058468
:02070700058467
:02070800058565
:02070900058663
:02070a00058761
:02070b0005885f
:02070c0005885e
:02070d0005895c
:02070e00058a5a
:02070f00058b58
:02071000058c56
:02071100058c55
:02071200058d53
:02071300058e51
:02071400058f4f
:02071500058f4e
:0207160005904c
:0207170005914a
:02071800059248
:02071900059346
:02071a00059345
:02071b00059443
:02071c00059541
:02071d0005963f
:02071e0005963e
:02071f0005973c
:0207200005983a
:02072100059938
:02072200059a36
:02072300059a35
:02072400059b33
:02072500059c31
:02072600059d2f
:02072700059e2d
:02072800059e2c
:02072900059f2a
:02072a0005a028
:02072b0005a126
:02072c0005a125
:02072d0005a223
:02072e0005a321
:02072f0005a41f
:0207300005a51d
:0207310005a51c
:0207320005a61a
:0207330005a718
:0207340005a816
:0207350005a914
:0207360005a913
:0207370005aa11
:0207380005ab0f
:0207390005ac0d
:02073a0005ac0c
:02073b0005ad0a
:02073c0005ae08
:02073d0005af06
:02073e0005b004
:02073f0005b003
:0207400005b101
:0207410005b2ff
:0207420005b3fd
:0207430005b4fb
:0207440005b4fa
:0207450005b5f8
:0207460005b6f6
:0207470005b7f4
:0207480005b7f3
:0207490005b8f1
:02074a0005b9ef
:02074b0005baed
:02074c0005bbeb
:02074d0005bbea
:02074e0005bce8
:02074f0005bde6
:0207500005bee4
:0207510005bfe2
:0207520005bfe1
:0207530005c0df
:0207540005c1dd
:0207550005c2db
:0207560005c2da
:0207570005c3d8
:0207580005c4d6
:0207590005c5d4
:02075a0005c6d2
:02075b0005c6d1
:02075c0005c7cf
:02075d0005c8cd
:02075e0005c9cb
:02075f0005c9ca
:0207600005cac8
:0207610005cbc6
:0207620005ccc4
:0207630005cdc2
:0207640005cdc1
:0207650005cebf
:0207660005cfbd
:0207670005d0bb
:0207680005d1b9
:0207690005d1b8
:02076a0005d2b6
:02076b0005d3b4
:02076c0005d4b2
:02076d0005d4b1
:02076e0005d5af
:02076f0005d6ad
:0207700005d7ab
:0207710005d8a9
:0207720005d8a8
:0207730005d9a6
:0207740005daa4
:0207750005dba2
:0207760005dca0
:0207770005dc9f
:0207780005dd9d
:0207790005de9b
:02077a0005df99
:02077b0005df98
:02077c0005e096
:02077d0005e194
:02077e0005e292
:02077f0005e390
:0207800005e38f
:0207810005e48d
:0207820005e58b
:0207830005e689
:0207840005e787
:0207850005e786
:0207860005e884
:0207870005e982
:0207880005ea80
:0207890005ea7f
:02078a0005eb7d
:02078b0005ec7b
:02078c0005ed79
:02078d0005ee77
:02078e0005ee76
:02078f0005ef74
:0207900005f072
:0207910005f170
:0207920005f26e
:0207930005f26d
:0207940005f36b
:0207950005f469
:0207960005f567
:0207970005f566
:0207980005f664
:0207990005f762
:02079a0005f860
:02079b0005f95e
:02079c0005f95d
:02079d0005fa5b
:02079e0005fb59
:02079f0005fc57
:0207a00005fc56
:0207a10005fd54
:0207a20005fe52
:0207a30005ff50
:0207a40006004d
:0207a50006004c
:0207a60006014a
:0207a700060248
:0207a800060346
:0207a900060444
:0207aa00060443
:0207ab00060541
:0207ac0006063f
:0207ad0006073d
:0207ae0006073c
:0207af0006083a
:0207b000060938
:0207b100060a36
:0207b200060b34
:0207b300060b33
:0207b400060c31
:0207b500060d2f
:0207b600060e2d
:0207b700060f2b
:0207b800060f2a
:0207b900061028
:0207ba00061126
:0207bb00061224
:0207bc00061223
:0207bd00061321
:0207be0006141f
:0207bf0006151d
:0207c00006161b
:0207c10006161a
:0207c200061718
:0207c300061816
:0207c400061914
:0207c500061a12
:0207c600061a11
:0207c700061b0f
:0207c800061c0d
:0207c900061d0b
:0207ca00061d0a
:0207cb00061e08
:0207cc00061f06
:0207cd00062004
:0207ce00062102
:0207cf00062101
:0207d0000622ff
:0207d1000623fd
:0207d2000624fb
:0207d3000625f9
:0207d4000625f8
:0207d5000626f6
:0207d6000627f4
:0207d7000628f2
:0207d8000628f1
:0207d9000629ef
:0207da00062aed
:0207db00062beb
:0207dc00062ce9
:0207dd00062ce8
:0207de00062de6
:0207df00062ee4
:0207e000062fe2
:0207e100062fe1
:0207e2000630df
:0207e3000631dd
:0207e4000632db
:0207e5000633d9
:0207e6000633d8
:0207e7000634d6
:0207e8000635d4
:0207e9000636d2
:0207ea000637d0
:0207eb000637cf
:0207ec000638cd
:0207ed000639cb
:0207ee00063ac9
:0207ef00063ac8
:0207f000063bc6
:0207f100063cc4
:0207f200063dc2
:0207f300063ec0
:0207f400063ebf
:0207f500063fbd
:0207f6000640bb
:0207f7000641b9
:0207f8000642b7
:0207f9000642b6
:0207fa000643b4
:0207fb000644b2
:0207fc000645b0
:0207fd000645af
:0207fe000646ad
:0207ff000647ab
:020800000648a8
:020801000649a6
:020802000649a5
:02080300064aa3
:02080400064ba1
:02080500064c9f
:02080600064d9d
:02080700064d9c
:02080800064e9a
:02080900064f98
:02080a00065096
:02080b00065095
:02080c00065193
:02080d00065291
:02080e0006538f
:02080f0006548d
:0208100006548c
:0208110006558a
:02081200065688
:02081300065786
:02081400065785
:02081500065883
:02081600065981
:02081700065a7f
:02081800065b7d
:02081900065b7c
:02081a00065c7a
:02081b00065d78
:02081c00065e76
:02081d00065f74
:02081e00065f73
:02081f00066071
:0208200006616f
:0208210006626d
:0208220006626c
:0208230006636a
:02082400066468
:02082500066566
:02082600066664
:02082700066663
:02082800066761
:0208290006685f
:02082a0006695d
:02082b00066a5b
:02082c00066a5a
:02082d00066b58
:02082e00066c56
:02082f00066d54
:02083000066d53
:02083100066e51
:02083200066f4f
:0208330006704d
:0208340006714b
:0208350006714a
:02083600067248
:02083700067346
:02083800067444
:02083900067542
:02083a00067541
:02083b0006763f
:02083c0006773d
:02083d0006783b
:02083e0006783a
:02083f00067938
:02084000067a36
:02084100067b34
:02084200067c32
:02084300067c31
:02084400067d2f
:02084500067e2d
:02084600067f2b
:02084700067f2a
:02084800068028
:02084900068126
:02084a00068224
:02084b00068322
:02084c00068321
:02084d0006841f
:02084e0006851d
:02084f0006861b
:02085000068719
:02085100068718
:02085200068816
:02085300068914
:02085400068a12
:02085500068a11
:02085600068b0f
:02085700068c0d
:02085800068d0b
:02085900068e09
:02085a00068e08
:02085b00068f06
:02085c00069004
:02085d00069102
:02085e00069200
:02085f000692ff
:020860000693fd
:020861000694fb
:020862000695f9
:020863000695f8
:020864000696f6
:020865000697f4
:020866000698f2
:020867000699f0
:020868000699ef
:02086900069aed
:02086a00069beb
:02086b00069ce9
:02086c00069de7
:02086d00069de6
:02086e00069ee4
:02086f00069fe2
:0208700006a0e0
:0208710006a0df
:0208720006a1dd
:0208730006a2db
:0208740006a3d9
:0208750006a4d7
:0208760006a4d6
:0208770006a5d4
:0208780006a6d2
:0208790006a7d0
:02087a0006a7cf
:02087b0006a8cd
:02087c0006a9cb
:02087d0006aac9
:02087e0006abc7
:02087f0006abc6
:0208800006acc4
:0208810006adc2
:0208820006aec0
:0208830006afbe
:0208840006afbd
:0208850006b0bb
:0208860006b1b9
:0208870006b2b7
:0208880006b2b6
:0208890006b3b4
:02088a0006b4b2
:02088b0006b5b0
:02088c0006b6ae
:02088d0006b6ad
:02088e0006b7ab
:02088f0006b8a9
:0208900006b9a7
:0208910006baa5
:0208920006baa4
:0208930006bba2
:0208940006bca0
:0208950006bd9e
:0208960006bd9d
:0208970006be9b
:0208980006bf99
:0208990006c097
:02089a0006c195
:02089b0006c194
:02089c0006c292
:02089d0006c390
:02089e0006c48e
:02089f0006c58c
:0208a00006c58b
:0208a10006c689
:0208a20006c787
:0208a30006c885
:0208a40006c884
:0208a50006c982
:0208a60006ca80
:0208a70006cb7e
:0208a80006cc7c
:0208a90006cc7b
:0208aa0006cd79
:0208ab0006ce77
:0208ac0006cf75
:0208ad0006cf74
:0208ae0006d072
:0208af0006d170
:0208b00006d26e
:0208b10006d36c
:0208b20006d36b
:0208b30006d469
:0208b40006d567
:0208b50006d665
:0208b60006d763
:0208b70006d762
:0208b80006d860
:0208b90006d95e
:0208ba0006da5c
:0208bb0006da5b
:0208bc0006db59
:0208bd0006dc57
:0208be0006dd55
:0208bf0006de53
:0208c00006de52
:0208c10006df50
:0208c20006e04e
:0208c30006e14c
:0208c40006e24a
:0208c50006e249
:0208c60006e347
:0208c70006e445
:0208c80006e543
:0208c90006e542
:0208ca0006e640
:0208cb0006e73e
:0208cc0006e83c
:0208cd0006e93a
:0208ce0006e939
:0208cf0006ea37
:0208d00006eb35
:0208d10006ec33
:0208d20006ed31
:0208d30006ed30
:0208d40006ee2e
:0208d50006ef2c
:0208d60006f02a
:0208d70006f029
:0208d80006f127
:0208d90006f225
:0208da0006f323
:0208db0006f421
:0208dc0006f420
:0208dd0006f51e
:0208de0006f61c
:0208df0006f71a
:0208e00006f719
:0208e10006f817
:0208e20006f915
:0208e30006fa13
:0208e40006fb11
:0208e50006fb10
:0208e60006fc0e
:0208e70006fd0c
:0208e80006fe0a
:0208e90006ff08
:0208ea0006ff07
:0208eb00070004
:0208ec00070102
:0208ed00070200
:0208ee000702ff
:0208ef000703fd
:0208f0000704fb
:0208f1000705f9
:0208f2000706f7
:0208f3000706f6
:0208f4000707f4
:0208f5000708f2
:0208f6000709f0
:0208f700070aee
:0208f800070aed
:0208f900070beb
:0208fa00070ce9
:0208fb00070de7
:0208fc00070de6
:0208fd00070ee4
:0208fe00070fe2
:0208ff000710e0
:020900000711dd
:020901000711dc
:020902000712da
:020903000713d8
:020904000714d6
:020905000715d4
:020906000715d3
:020907000716d1
:020908000717cf
:020909000718cd
:02090a000718cc
:02090b000719ca
:02090c00071ac8
:02090d00071bc6
:02090e00071cc4
:02090f00071cc3
:02091000071dc1
:02091100071ebf
:02091200071fbd
:02091300071fbc
:020914000720ba
:020915000721b8
:020916000722b6
:020917000723b4
:020918000723b3
:020919000724b1
:02091a000725af
:02091b000726ad
:02091c000727ab
:02091d000727aa
:02091e000728a8
:02091f000729a6
:02092000072aa4
:02092100072aa3
:02092200072ba1
:02092300072c9f
:02092400072d9d
:02092500072e9b
:02092600072e9a
:02092700072f98
:02092800073096
:02092900073194
:02092a00073292
:02092b00073291
:02092c0007338f
:02092d0007348d
:02092e0007358b
:02092f0007358a
:02093000073688
:02093100073786
:02093200073884
:02093300073982
:02093400073981
:02093500073a7f
:02093600073b7d
:02093700073c7b
:02093800073c7a
:02093900073d78
:02093a00073e76
:02093b00073f74
:02093c00074072
:02093d00074071
:02093e0007416f
:02093f0007426d
:0209400007436b
:02094100074469
:02094200074468
:02094300074566
:02094400074664
:02094500074762
:02094600074761
:0209470007485f
:0209480007495d
:02094900074a5b
:02094a00074b59
:02094b00074b58
:02094c00074c56
:02094d00074d54
:02094e00074e52
:02094f00074f50
:02095000074f4f
:0209510007504d
:0209520007514b
:02095300075249
:02095400075248
:02095500075346
:02095600075444
:02095700075542
:02095800075640
:0209590007563f
:02095a0007573d
:02095b0007583b
:02095c00075939
:02095d00075a37
:02095e00075a36
:02095f00075b34
:02096000075c32
:02096100075d30
:02096200075d2f
:02096300075e2d
:02096400075f2b
:02096500076029
:02096600076127
:02096700076126
:02096800076224
:02096900076322
:02096a00076420
:02096b0007641f
:02096c0007651d
:02096d0007661b
:02096e00076719
:02096f00076817
:02097000076816
:02097100076914
:02097200076a12
:02097300076b10
:02097400076c0e
:02097500076c0d
:02097600076d0b
:02097700076e09
:02097800076f07
:02097900076f06
:02097a00077004
:02097b00077102
:02097c00077200
:02097d000773fe
:02097e000773fd
:02097f000774fb
:020980000775f9
:020981000776f7
:020982000777f5
:020983000777f4
:020984000778f2
:020985000779f0
:02098600077aee
:02098700077aed
:02098800077beb
:02098900077ce9
:02098a00077de7
:02098b00077ee5
:02098c00077ee4
:02098d00077fe2
:02098e000780e0
:02098f000781de
:020990000781dd
:020991000782db
:020992000783d9
:020993000784d7
:020994000785d5
:020995000785d4
:020996000786d2
:020997000787d0
:020998000788ce
:020999000789cc
:02099a000789cb
:02099b00078ac9
:02099c00078bc7
:02099d00078cc5
:02099e00078cc4
:02099f00078dc2
:0209a000078ec0
:0209a100078fbe
:0209a2000790bc
:0209a3000790bb
:0209a4000791b9
:0209a5000792b7
:0209a6000793b5
:0209a7000794b3
:0209a8000794b2
:0209a9000795b0
:0209aa000796ae
:0209ab000797ac
:0209ac000797ab
:0209ad000798a9
:0209ae000799a7
:0209af00079aa5
:0209b000079ba3
:0209b100079ba2
:0209b200079ca0
:0209b300079d9e
:0209b400079e9c
:0209b500079f9a
:0209b600079f99
:0209b70007a097
:0209b80007a195
:0209b90007a293
:0209ba0007a292
:0209bb0007a390
:0209bc0007a48e
:0209bd0007a58c
:0209be0007a68a
:0209bf0007a689
:0209c00007a787
:0209c10007a885
:0209c20007a983
:0209c30007a982
:0209c40007aa80
:0209c50007ab7e
:0209c60007ac7c
:0209c70007ad7a
:0209c80007ad79
:0209c90007ae77
:0209ca0007af75
:0209cb0007b073
:0209cc0007b171
:0209cd0007b170
:0209ce0007b26e
:0209cf0007b36c
:0209d00007b46a
:0209d10007b469
:0209d20007b567
:0209d30007b665
:0209d40007b763
:0209d50007b861
:0209d60007b860
:0209d70007b95e
:0209d80007ba5c
:0209d90007bb5a
:0209da0007bc58
:0209db0007bc57
:0209dc0007bd55
:0209dd0007be53
:0209de0007bf51
:0209df0007bf50
:0209e00007c04e
:0209e10007c14c
:0209e20007c24a
:0209e30007c348
:0209e40007c347
:0209e50007c445
:0209e60007c543
:0209e70007c641
:0209e80007c640
:0209e90007c73e
:0209ea0007c83c
:0209eb0007c93a
:0209ec0007ca38
:0209ed0007ca37
:0209ee0007cb35
:0209ef0007cc33
:0209f00007cd31
:0209f10007ce2f
:0209f20007ce2e
:0209f30007cf2c
:0209f40007d02a
:0209f50007d128
:0209f60007d127
:0209f70007d225
:0209f80007d323
:0209f90007d421
:0209fa0007d51f
:0209fb0007d51e
:0209fc0007d61c
:0209fd0007d71a
:0209fe0007d818
:0209ff0007d916
:020a000007d914
:020a010007da12
:020a020007db10
:020a030007dc0e
:020a040007dc0d
:020a050007dd0b
:020a060007de09
:020a070007df07
:020a080007e005
:020a090007e004
:020a0a0007e102
:020a0b0007e200
:020a0c0007e3fe
:020a0d0007e3fd
:020a0e0007e4fb
:020a0f0007e5f9
:020a100007e6f7
:020a110007e7f5
:020a120007e7f4
:020a130007e8f2
:020a140007e9f0
:020a150007eaee
:020a160007ebec
:020a170007ebeb
:020a180007ece9
:020a190007ede7
:020a1a0007eee5
:020a1b0007eee4
:020a1c0007efe2
:020a1d0007f0e0
:020a1e0007f1de
:020a1f0007f2dc
:020a200007f2db
:020a210007f3d9
:020a220007f4d7
:020a230007f5d5
:020a240007f6d3
:020a250007f6d2
:020a260007f7d0
:020a270007f8ce
:020a280007f9cc
:020a290007f9cb
:020a2a0007fac9
:020a2b0007fbc7
:020a2c0007fcc5
:020a2d0007fdc3
:020a2e0007fdc2
:020a2f0007fec0
:020a300007ffbe
:020a31000800bb
:020a32000800ba
:020a33000801b8
:020a34000802b6
:020a35000803b4
:020a36000804b2
:020a37000804b1
:020a38000805af
:020a39000806ad
:020a3a000807ab
:020a3b000808a9
:020a3c000808a8
:020a3d000809a6
:020a3e00080aa4
:020a3f00080ba2
:020a4000080ba1
:020a4100080c9f
:020a4200080d9d
:020a4300080e9b
:020a4400080f99
:020a4500080f98
:020a4600081096
:020a4700081194
:020a4800081292
:020a4900081390
:020a4a0008138f
:020a4b0008148d
:020a4c0008158b
:020a4d00081689
:020a4e00081688
:020a4f00081786
:020a5000081884
:020a5100081982
:020a5200081a80
:020a5300081a7f
:020a5400081b7d
:020a5500081c7b
:020a5600081d79
:020a5700081d78
:020a5800081e76
:020a5900081f74
:020a5a00082072
:020a5b00082170
:020a5c0008216f
:020a5d0008226d
:020a5e0008236b
:020a5f00082469
:020a6000082567
:020a6100082566
:020a6200082664
:020a6300082762
:020a6400082860
:020a650008285f
:020a660008295d
:020a6700082a5b
:020a6800082b59
:020a6900082c57
:020a6a00082c56
:020a6b00082d54
:020a6c00082e52
:020a6d00082f50
:020a6e0008304e
:020a6f0008304d
:020a700008314b
:020a7100083249
:020a7200083347
:020a7300083346
:020a7400083444
:020a7500083542
:020a7600083640
:020a770008373e
:020a780008373d
:020a790008383b
:020a7a00083939
:020a7b00083a37
:020a7c00083a36
:020a7d00083b34
:020a7e00083c32
:020a7f00083d30
:020a8000083e2e
:020a8100083e2d
:020a8200083f2b
:020a8300084029
:020a8400084127
:020a8500084225
:020a8600084224
:020a8700084322
:020a8800084420
:020a890008451e
:020a8a0008451d
:020a8b0008461b
:020a8c00084719
:020a8d00084817
:020a8e00084915
:020a8f00084914
:020a9000084a12
:020a9100084b10
:020a9200084c0e
:020a9300084d0c
:020a9400084d0b
:020a9500084e09
:020a9600084f07
:020a9700085005
:020a9800085004
:020a9900085102
:020a9a00085200
:020a9b000853fe
:020a9c000854fc
:020a9d000854fb
:020a9e000855f9
:020a9f000856f7
:020aa0000857f5
:020aa1000857f4
:020aa2000858f2
:020aa3000859f0
:020aa400085aee
:020aa500085bec
:020aa600085beb
:020aa700085ce9
:020aa800085de7
:020aa900085ee5
:020aaa00085fe3
:020aab00085fe2
:020aac000860e0
:020aad000861de
:020aae000862dc
:020aaf000862db
:020ab0000863d9
:020ab1000864d7
:020ab2000865d5
:020ab3000866d3
:020ab4000866d2
:020ab5000867d0
:020ab6000868ce
:020ab7000869cc
:020ab800086aca
:020ab900086ac9
:020aba00086bc7
:020abb00086cc5
:020abc00086dc3
:020abd00086dc2
:020abe00086ec0
:020abf00086fbe
:020ac0000870bc
:020ac1000871ba
:020ac2000871b9
:020ac3000872b7
:020ac4000873b5
:020ac5000874b3
:020ac6000874b2
:020ac7000875b0
:020ac8000876ae
:020ac9000877ac
:020aca000878aa
:020acb000878a9
:020acc000879a7
:020acd00087aa5
:020ace00087ba3
:020acf00087ca1
:020ad000087ca0
:020ad100087d9e
:020ad200087e9c
:020ad300087f9a
:020ad400087f99
:020ad500088097
:020ad600088195
:020ad700088293
:020ad800088391
:020ad900088390
:020ada0008848e
:020adb0008858c
:020adc0008868a
:020add00088788
:020ade00088787
:020adf00088885
:020ae000088983
:020ae100088a81
:020ae200088a80
:020ae300088b7e
:020ae400088c7c
:020ae500088d7a
:020ae600088e78
:020ae700088e77
:020ae800088f75
:020ae900089073
:020aea00089171
:020aeb00089170
:020aec0008926e
:020aed0008936c
:020aee0008946a
:020aef00089568
:020af000089567
:020af100089665
:020af200089763
:020af300089861
:020af40008995f
:020af50008995e
:020af600089a5c
:020af700089b5a
:020af800089c58
:020af900089c57
:020afa00089d55
:020afb00089e53
:020afc00089f51
:020afd0008a04f
:020afe0008a04e
:020aff0008a14c
:020b000008a249
:020b010008a347
:020b020008a445
:020b030008a444
:020b040008a542
:020b050008a640
:020b060008a73e
:020b070008a73d
:020b080008a83b
:020b090008a939
:020b0a0008aa37
:020b0b0008ab35
:020b0c0008ab34
:020b0d0008ac32
:020b0e0008ad30
:020b0f0008ae2e
:020b100008ae2d
:020b110008af2b
:020b120008b029
:020b130008b127
:020b140008b225
:020b150008b224
:020b160008b322
:020b170008b420
:020b180008b51e
:020b190008b61c
:020b1a0008b61b
:020b1b0008b719
:020b1c0008b817
:020b1d0008b915
:020b1e0008b914
:020b1f0008ba12
:020b200008bb10
:020b210008bc0e
:020b220008bd0c
:020b230008bd0b
:020b240008be09
:020b250008bf07
:020b260008c005
:020b270008c004
:020b280008c102
:020b290008c200
:020b2a0008c3fe
:020b2b0008c4fc
:020b2c0008c4fb
:020b2d0008c5f9
:020b2e0008c6f7
:020b2f0008c7f5
:020b300008c8f3
:020b310008c8f2
:020b320008c9f0
:020b330008caee
:020b340008cbec
:020b350008cbeb
:020b360008cce9
:020b370008cde7
:020b380008cee5
:020b390008cfe3
:020b3a0008cfe2
:020b3b0008d0e0
:020b3c0008d1de
:020b3d0008d2dc
:020b3e0008d3da
:020b3f0008d3d9
:020b400008d4d7
:020b410008d5d5
:020b420008d6d3
:020b430008d6d2
:020b440008d7d0
:020b450008d8ce
:020b460008d9cc
:020b470008daca
:020b480008dac9
:020b490008dbc7
:020b4a0008dcc5
:020b4b0008ddc3
:020b4c0008ddc2
:020b4d0008dec0
:020b4e0008dfbe
:020b4f0008e0bc
:020b500008e1ba
:020b510008e1b9
:020b520008e2b7
:020b530008e3b5
:020b540008e4b3
:020b550008e5b1
:020b560008e5b0
:020b570008e6ae
:020b580008e7ac
:020b590008e8aa
:020b5a0008e8a9
:020b5b0008e9a7
:020b5c0008eaa5
:020b5d0008eba3
:020b5e0008eca1
:020b5f0008eca0
:020b600008ed9e
:020b610008ee9c
:020b620008ef9a
:020b630008f098
:020b640008f097
:020b650008f195
:020b660008f293
:020b670008f391
:020b680008f390
:020b690008f48e
:020b6a0008f58c
:020b6b0008f68a
:020b6c0008f788
:020b6d0008f787
:020b6e0008f885
:020b6f0008f983
:020b700008fa81
:020b710008fa80
:020b720008fb7e
:020b730008fc7c
:020b740008fd7a
:020b750008fe78
:020b760008fe77
:020b770008ff75
:020b7800090072
:020b7900090170
:020b7a0009026e
:020b7b0009026d
:020b7c0009036b
:020b7d00090469
:020b7e00090567
:020b7f00090566
:020b8000090664
:020b8100090762
:020b8200090860
:020b830009095e
:020b840009095d
:020b8500090a5b
:020b8600090b59
:020b8700090c57
:020b8800090c56
:020b8900090d54
:020b8a00090e52
:020b8b00090f50
:020b8c0009104e
:020b8d0009104d
:020b8e0009114b
:020b8f00091249
:020b9000091347
:020b9100091445
:020b9200091444
:020b9300091542
:020b9400091640
:020b950009173e
:020b960009173d
:020b970009183b
:020b9800091939
:020b9900091a37
:020b9a00091b35
:020b9b00091b34
:020b9c00091c32
:020b9d00091d30
:020b9e00091e2e
:020b9f00091f2c
:020ba000091f2b
:020ba100092029
:020ba200092127
:020ba300092225
:020ba400092224
:020ba500092322
:020ba600092420
:020ba70009251e
:020ba80009261c
:020ba90009261b
:020baa00092719
:020bab00092817
:020bac00092915
:020bad00092914
:020bae00092a12
:020baf00092b10
:020bb000092c0e
:020bb100092d0c
:020bb200092d0b
:020bb300092e09
:020bb400092f07
:020bb500093005
:020bb600093103
:020bb700093102
:020bb800093200
:020bb9000933fe
:020bba000934fc
:020bbb000934fb
:020bbc000935f9
:020bbd000936f7
:020bbe000937f5
:020bbf000938f3
:020bc0000938f2
:020bc1000939f0
:020bc200093aee
:020bc300093bec
:020bc400093beb
:020bc500093ce9
:020bc600093de7
:020bc700093ee5
:020bc800093fe3
:020bc900093fe2
:020bca000940e0
:020bcb000941de
:020bcc000942dc
:020bcd000943da
:020bce000943d9
:020bcf000944d7
:020bd0000945d5
:020bd1000946d3
:020bd2000946d2
:020bd3000947d0
:020bd4000948ce
:020bd5000949cc
:020bd600094aca
:020bd700094ac9
:020bd800094bc7
:020bd900094cc5
:020bda00094dc3
:020bdb00094ec1
:020bdc00094ec0
:020bdd00094fbe
:020bde000950bc
:020bdf000951ba
:020be0000951b9
:020be1000952b7
:020be2000953b5
:020be3000954b3
:020be4000955b1
:020be5000955b0
:020be6000956ae
:020be7000957ac
:020be8000958aa
:020be9000958a9
:020bea000959a7
:020beb00095aa5
:020bec00095ba3
:020bed00095ca1
:020bee00095ca0
:020bef00095d9e
:020bf000095e9c
:020bf100095f9a
:020bf200096098
:020bf300096097
:020bf400096195
:020bf500096293
:020bf600096391
:020bf700096390
:020bf80009648e
:020bf90009658c
:020bfa0009668a
:020bfb00096788
:020bfc00096787
:020bfd00096885
:020bfe00096983
:020bff00096a81
:020c0000096a7f
:020c0100096b7d
:020c0200096c7b
:020c0300096d79
:020c0400096e77
:020c0500096e76
:020c0600096f74
:020c0700097072
:020c0800097170
:020c090009726e
:020c0a0009726d
:020c0b0009736b
:020c0c00097469
:020c0d00097567
:020c0e00097566
:020c0f00097664
:020c1000097762
:020c1100097860
:020c120009795e
:020c130009795d
:020c1400097a5b
:020c1500097b59
:020c1600097c57
:020c1700097d55
:020c1800097d54
:020c1900097e52
:020c1a00097f50
:020c1b0009804e
:020c1c0009804d
:020c1d0009814b
:020c1e00098249
:020c1f00098347
:020c2000098445
:020c2100098444
:020c2200098542
:020c2300098640
:020c240009873e
:020c250009873d
:020c260009883b
:020c2700098939
:020c2800098a37
:020c2900098b35
:020c2a00098b34
:020c2b00098c32
:020c2c00098d30
:020c2d00098e2e
:020c2e00098f2c
:020c2f00098f2b
:020c3000099029
:020c3100099127
:020c3200099225
:020c3300099224
:020c3400099322
:020c3500099420
:020c360009951e
:020c370009961c
:020c380009961b
:020c3900099719
:020c3a00099817
:020c3b00099915
:020c3c00099914
:020c3d00099a12
:020c3e00099b10
:020c3f00099c0e
:020c4000099d0c
:020c4100099d0b
:020c4200099e09
:020c4300099f07
:020c440009a005
:020c450009a103
:020c460009a102
:020c470009a200
:020c480009a3fe
:020c490009a4fc
:020c4a0009a4fb
:020c4b0009a5f9
:020c4c0009a6f7
:020c4d0009a7f5
:020c4e0009a8f3
:020c4f0009a8f2
:020c500009a9f0
:020c510009aaee
:020c520009abec
:020c530009abeb
:020c540009ace9
:020c550009ade7
:020c560009aee5
:020c570009afe3
:020c580009afe2
:020c590009b0e0
:020c5a0009b1de
:020c5b0009b2dc
:020c5c0009b3da
:020c5d0009b3d9
:020c5e0009b4d7
:020c5f0009b5d5
:020c600009b6d3
:020c610009b6d2
:020c620009b7d0
:020c630009b8ce
:020c640009b9cc
:020c650009baca
:020c660009bac9
:020c670009bbc7
:020c680009bcc5
:020c690009bdc3
:020c6a0009bec1
:020c6b0009bec0
:020c6c0009bfbe
:020c6d0009c0bc
:020c6e0009c1ba
:020c6f0009c1b9
:020c700009c2b7
:020c710009c3b5
:020c720009c4b3
:020c730009c5b1
:020c740009c5b0
:020c750009c6ae
:020c760009c7ac
:020c770009c8aa
:020c780009c8a9
:020c790009c9a7
:020c7a0009caa5
:020c7b0009cba3
:020c7c0009cca1
:020c7d0009cca0
:020c7e0009cd9e
:020c7f0009ce9c
:020c800009cf9a
:020c810009d098
:020c820009d097
:020c830009d195
:020c840009d293
:020c850009d391
:020c860009d390
:020c870009d48e
:020c880009d58c
:020c890009d68a
:020c8a0009d788
:020c8b0009d787
:020c8c0009d885
:020c8d0009d983
:020c8e0009da81
:020c8f0009da80
:020c900009db7e
:020c910009dc7c
:020c920009dd7a
:020c930009de78
:020c940009de77
:020c950009df75
:020c960009e073
:020c970009e171
:020c980009e26f
:020c990009e26e
:020c9a0009e36c
:020c9b0009e46a
:020c9c0009e568
:020c9d0009e567
:020c9e0009e665
:020c9f0009e763
:020ca00009e861
:020ca10009e95f
:020ca20009e95e
:020ca30009ea5c
:020ca40009eb5a
:020ca50009ec58
:020ca60009ec57
:020ca70009ed55
:020ca80009ee53
:020ca90009ef51
:020caa0009f04f
:020cab0009f04e
:020cac0009f14c
:020cad0009f24a
:020cae0009f348
:020caf0009f446
:020cb00009f445
:020cb10009f543
:020cb20009f641
:020cb30009f73f
:020cb40009f73e
:020cb50009f83c
:020cb60009f93a
:020cb70009fa38
:020cb80009fb36
:020cb90009fb35
:020cba0009fc33
:020cbb0009fd31
:020cbc0009fe2f
:020cbd0009fe2e
:020cbe0009ff2c
:020cbf000a0029
:020cc0000a0127
:020cc1000a0225
:020cc2000a0224
:020cc3000a0322
:020cc4000a0420
:020cc5000a051e
:020cc6000a061c
:020cc7000a061b
:020cc8000a0719
:020cc9000a0817
:020cca000a0915
:020ccb000a0914
:020ccc000a0a12
:020ccd000a0b10
:020cce000a0c0e
:020ccf000a0d0c
:020cd0000a0d0b
:020cd1000a0e09
:020cd2000a0f07
:020cd3000a1005
:020cd4000a1103
:020cd5000a1102
:020cd6000a1200
:020cd7000a13fe
:020cd8000a14fc
:020cd9000a14fb
:020cda000a15f9
:020cdb000a16f7
:020cdc000a17f5
:020cdd000a18f3
:020cde000a18f2
:020cdf000a19f0
:020ce0000a1aee
:020ce1000a1bec
:020ce2000a1beb
:020ce3000a1ce9
:020ce4000a1de7
:020ce5000a1ee5
:020ce6000a1fe3
:020ce7000a1fe2
:020ce8000a20e0
:020ce9000a21de
:020cea000a22dc
:020ceb000a23da
:020cec000a23d9
:020ced000a24d7
:020cee000a25d5
:020cef000a26d3
:020cf0000a26d2
:020cf1000a27d0
:020cf2000a28ce
:020cf3000a29cc
:020cf4000a2aca
:020cf5000a2ac9
:020cf6000a2bc7
:020cf7000a2cc5
:020cf8000a2dc3
:020cf9000a2dc2
:020cfa000a2ec0
:020cfb000a2fbe
:020cfc000a30bc
:020cfd000a31ba
:020cfe000a31b9
:020cff000a32b7
:020d00000a33b4
:020d01000a34b2
:020d02000a35b0
:020d03000a35af
:020d04000a36ad
:020d05000a37ab
:020d06000a38a9
:020d07000a38a8
:020d08000a39a6
:020d09000a3aa4
:020d0a000a3ba2
:020d0b000a3ca0
:020d0c000a3c9f
:020d0d000a3d9d
:020d0e000a3e9b
:020d0f000a3f99
:020d10000a3f98
:020d11000a4096
:020d12000a4194
:020d13000a4292
:020d14000a4390
:020d15000a438f
:020d16000a448d
:020d17000a458b
:020d18000a4689
:020d19000a4787
:020d1a000a4786
:020d1b000a4884
:020d1c000a4982
:020d1d000a4a80
:020d1e000a4a7f
:020d1f000a4b7d
:020d20000a4c7b
:020d21000a4d79
:020d22000a4e77
:020d23000a4e76
:020d24000a4f74
:020d25000a5072
:020d26000a5170
:020d27000a516f
:020d28000a526d
:020d29000a536b
:020d2a000a5469
:020d2b000a5567
:020d2c000a5566
:020d2d000a5664
:020d2e000a5762
:020d2f000a5860
:020d30000a595e
:020d31000a595d
:020d32000a5a5b
:020d33000a5b59
:020d34000a5c57
:020d35000a5c56
:020d36000a5d54
:020d37000a5e52
:020d38000a5f50
:020d39000a604e
:020d3a000a604d
:020d3b000a614b
:020d3c000a6249
:020d3d000a6347
:020d3e000a6346
:020d3f000a6444
:020d40000a6542
:020d41000a6640
:020d42000a673e
:020d43000a673d
:020d44000a683b
:020d45000a6939
:020d46000a6a37
:020d47000a6b35
:020d48000a6b34
:020d49000a6c32
:020d4a000a6d30
:020d4b000a6e2e
:020d4c000a6e2d
:020d4d000a6f2b
:020d4e000a7029
:020d4f000a7127
:020d50000a7225
:020d51000a7224
:020d52000a7322
:020d53000a7420
:020d54000a751e
:020d55000a751d
:020d56000a761b
:020d57000a7719
:020d58000a7817
:020d59000a7915
:020d5a000a7914
:020d5b000a7a12
:020d5c000a7b10
:020d5d000a7c0e
:020d5e000a7d0c
:020d5f000a7d0b
:020d60000a7e09
:020d61000a7f07
:020d62000a8005
:020d63000a8004
:020d64000a8102
:020d65000a8200
:020d66000a83fe
:020d67000a84fc
:020d68000a84fb
:020d69000a85f9
:020d6a000a86f7
:020d6b000a87f5
:020d6c000a87f4
:020d6d000a88f2
:020d6e000a89f0
:020d6f000a8aee
:020d70000a8bec
:020d71000a8beb
:020d72000a8ce9
:020d73000a8de7
:020d74000a8ee5
:020d75000a8fe3
:020d76000a8fe2
:020d77000a90e0
:020d78000a91de
:020d79000a92dc
:020d7a000a92db
:020d7b000a93d9
:020d7c000a94d7
:020d7d000a95d5
:020d7e000a96d3
:020d7f000a96d2
:020d80000a97d0
:020d81000a98ce
:020d82000a99cc
:020d83000a99cb
:020d84000a9ac9
:020d85000a9bc7
:020d86000a9cc5
:020d87000a9dc3
:020d88000a9dc2
:020d89000a9ec0
:020d8a000a9fbe
:020d8b000aa0bc
:020d8c000aa1ba
:020d8d000aa1b9
:020d8e000aa2b7
:020d8f000aa3b5
:020d90000aa4b3
:020d91000aa4b2
:020d92000aa5b0
:020d93000aa6ae
:020d94000aa7ac
:020d95000aa8aa
:020d96000aa8a9
:020d97000aa9a7
:020d98000aaaa5
:020d99000aaba3
:020d9a000aaba2
:020d9b000aaca0
:020d9c000aad9e
:020d9d000aae9c
:020d9e000aaf9a
:020d9f000aaf99
:020da0000ab097
:020da1000ab195
:020da2000ab293
:020da3000ab391
:020da4000ab390
:020da5000ab48e
:020da6000ab58c
:020da7000ab68a
:020da8000ab689
:020da9000ab787
:020daa000ab885
:020dab000ab983
:020dac000aba81
:020dad000aba80
:020dae000abb7e
:020daf000abc7c
:020db0000abd7a
:020db1000abd79
:020db2000abe77
:020db3000abf75
:020db4000ac073
:020db5000ac171
:020db6000ac170
:020db7000ac26e
:020db8000ac36c
:020db9000ac46a
:020dba000ac568
:020dbb000ac567
:020dbc000ac665
:020dbd000ac763
:020dbe000ac861
:020dbf000ac860
:020dc0000ac95e
:020dc1000aca5c
:020dc2000acb5a
:020dc3000acc58
:020dc4000acc57
:020dc5000acd55
:020dc6000ace53
:020dc7000acf51
:020dc8000acf50
:020dc9000ad04e
:020dca000ad14c
:020dcb000ad24a
:020dcc000ad348
:020dcd000ad347
:020dce000ad445
:020dcf000ad543
:020dd0000ad641
:020dd1000ad73f
:020dd2000ad73e
:020dd3000ad83c
:020dd4000ad93a
:020dd5000ada38
:020dd6000ada37
:020dd7000adb35
:020dd8000adc33
:020dd9000add31
:020dda000ade2f
:020ddb000ade2e
:020ddc000adf2c
:020ddd000ae02a
:020dde000ae128
:020ddf000ae127
:020de0000ae225
:020de1000ae323
:020de2000ae421
:020de3000ae51f
:020de4000ae51e
:020de5000ae61c
:020de6000ae71a
:020de7000ae818
:020de8000ae916
:020de9000ae915
:020dea000aea13
:020deb000aeb11
:020dec000aec0f
:020ded000aec0e
:020dee000aed0c
:020def000aee0a
:020df0000aef08
:020df1000af006
:020df2000af005
:020df3000af103
:020df4000af201
:020df5000af3ff
:020df6000af3fe
:020df7000af4fc
:020df8000af5fa
:020df9000af6f8
:020dfa000af7f6
:020dfb000af7f5
:020dfc000af8f3
:020dfd000af9f1
:020dfe000afaef
:020dff000afbed
:020e00000afbeb
:020e01000afce9
:020e02000afde7
:020e03000afee5
:020e04000afee4
:020e05000affe2
:020e06000b00df
:020e07000b01dd
:020e08000b02db
:020e09000b02da
:020e0a000b03d8
:020e0b000b04d6
:020e0c000b05d4
:020e0d000b05d3
:020e0e000b06d1
:020e0f000b07cf
:020e10000b08cd
:020e11000b09cb
:020e12000b09ca
:020e13000b0ac8
:020e14000b0bc6
:020e15000b0cc4
:020e16000b0dc2
:020e17000b0dc1
:020e18000b0ebf
:020e19000b0fbd
:020e1a000b10bb
:020e1b000b10ba
:020e1c000b11b8
:020e1d000b12b6
:020e1e000b13b4
:020e1f000b14b2
:020e20000b14b1
:020e21000b15af
:020e22000b16ad
:020e23000b17ab
:020e24000b17aa
:020e25000b18a8
:020e26000b19a6
:020e27000b1aa4
:020e28000b1ba2
:020e29000b1ba1
:020e2a000b1c9f
:020e2b000b1d9d
:020e2c000b1e9b
:020e2d000b1f99
:020e2e000b1f98
:020e2f000b2096
:020e30000b2194
:020e31000b2292
:020e32000b2291
:020e33000b238f
:020e34000b248d
:020e35000b258b
:020e36000b2689
:020e37000b2688
:020e38000b2786
:020e39000b2884
:020e3a000b2982
:020e3b000b2981
:020e3c000b2a7f
:020e3d000b2b7d
:020e3e000b2c7b
:020e3f000b2d79
:020e40000b2d78
:020e41000b2e76
:020e42000b2f74
:020e43000b3072
:020e44000b3170
:020e45000b316f
:020e46000b326d
:020e47000b336b
:020e48000b3469
:020e49000b3468
:020e4a000b3566
:020e4b000b3664
:020e4c000b3762
:020e4d000b3860
:020e4e000b385f
:020e4f000b395d
:020e50000b3a5b
:020e51000b3b59
:020e52000b3b58
:020e53000b3c56
:020e54000b3d54
:020e55000b3e52
:020e56000b3f50
:020e57000b3f4f
:020e58000b404d
:020e59000b414b
:020e5a000b4249
:020e5b000b4347
:020e5c000b4346
:020e5d000b4444
:020e5e000b4542
:020e5f000b4640
:020e60000b463f
:020e61000b473d
:020e62000b483b
:020e63000b4939
:020e64000b4a37
:020e65000b4a36
:020e66000b4b34
:020e67000b4c32
:020e68000b4d30
:020e69000b4d2f
:020e6a000b4e2d
:020e6b000b4f2b
:020e6c000b5029
:020e6d000b5127
:020e6e000b5126
:020e6f000b5224
:020e70000b5322
:020e71000b5420
:020e72000b551e
:020e73000b551d
:020e74000b561b
:020e75000b5719
:020e76000b5817
:020e77000b5816
:020e78000b5914
:020e79000b5a12
:020e7a000b5b10
:020e7b000b5c0e
:020e7c000b5c0d
:020e7d000b5d0b
:020e7e000b5e09
:020e7f000b5f07
:020e80000b5f06
:020e81000b6004
:020e82000b6102
:020e83000b6200
:020e84000b63fe
:020e85000b63fd
:020e86000b64fb
:020e87000b65f9
:020e88000b66f7
:020e89000b67f5
:020e8a000b67f4
:020e8b000b68f2
:020e8c000b69f0
:020e8d000b6aee
:020e8e000b6aed
:020e8f000b6beb
:020e90000b6ce9
:020e91000b6de7
:020e92000b6ee5
:020e93000b6ee4
:020e94000b6fe2
:020e95000b70e0
:020e96000b71de
:020e97000b71dd
:020e98000b72db
:020e99000b73d9
:020e9a000b74d7
:020e9b000b75d5
:020e9c000b75d4
:020e9d000b76d2
:020e9e000b77d0
:020e9f000b78ce
:020ea0000b78cd
:020ea1000b79cb
:020ea2000b7ac9
:020ea3000b7bc7
:020ea4000b7cc5
:020ea5000b7cc4
:020ea6000b7dc2
:020ea7000b7ec0
:020ea8000b7fbe
:020ea9000b80bc
:020eaa000b80bb
:020eab000b81b9
:020eac000b82b7
:020ead000b83b5
:020eae000b83b4
:020eaf000b84b2
:020eb0000b85b0
:020eb1000b86ae
:020eb2000b87ac
:020eb3000b87ab
:020eb4000b88a9
:020eb5000b89a7
:020eb6000b8aa5
:020eb7000b8aa4
:020eb8000b8ba2
:020eb9000b8ca0
:020eba000b8d9e
:020ebb000b8e9c
:020ebc000b8e9b
:020ebd000b8f99
:020ebe000b9097
:020ebf000b9195
:020ec0000b9293
:020ec1000b9292
:020ec2000b9390
:020ec3000b948e
:020ec4000b958c
:020ec5000b958b
:020ec6000b9689
:020ec7000b9787
:020ec8000b9885
:020ec9000b9983
:020eca000b9982
:020ecb000b9a80
:020ecc000b9b7e
:020ecd000b9c7c
:020ece000b9c7b
:020ecf000b9d79
:020ed0000b9e77
:020ed1000b9f75
:020ed2000ba073
:020ed3000ba072
:020ed4000ba170
:020ed5000ba26e
:020ed6000ba36c
:020ed7000ba46a
:020ed8000ba469
:020ed9000ba567
:020eda000ba665
:020edb000ba763
:020edc000ba762
:020edd000ba860
:020ede000ba95e
:020edf000baa5c
:020ee0000bab5a
:020ee1000bab59
:020ee2000bac57
:020ee3000bad55
:020ee4000bae53
:020ee5000bae52
:020ee6000baf50
:020ee7000bb04e
:020ee8000bb14c
:020ee9000bb24a
:020eea000bb249
:020eeb000bb347
:020eec000bb445
:020eed000bb543
:020eee000bb641
:020eef000bb640
:020ef0000bb73e
:020ef1000bb83c
:020ef2000bb93a
:020ef3000bb939
:020ef4000bba37
:020ef5000bbb35
:020ef6000bbc33
:020ef7000bbd31
:020ef8000bbd30
:020ef9000bbe2e
:020efa000bbf2c
:020efb000bc02a
:020efc000bc029
:020efd000bc127
:020efe000bc225
:020eff000bc323
:020f00000bc420
:020f01000bc41f
:020f02000bc51d
:020f03000bc61b
:020f04000bc719
:020f05000bc718
:020f06000bc816
:020f07000bc914
:020f08000bca12
:020f09000bcb10
:020f0a000bcb0f
:020f0b000bcc0d
:020f0c000bcd0b
:020f0d000bce09
:020f0e000bcf07
:020f0f000bcf06
:020f10000bd004
:020f11000bd102
:020f12000bd200
:020f13000bd2ff
:020f14000bd3fd
:020f15000bd4fb
:020f16000bd5f9
:020f17000bd6f7
:020f18000bd6f6
:020f19000bd7f4
:020f1a000bd8f2
:020f1b000bd9f0
:020f1c000bd9ef
:020f1d000bdaed
:020f1e000bdbeb
:020f1f000bdce9
:020f20000bdde7
:020f21000bdde6
:020f22000bdee4
:020f23000bdfe2
:020f24000be0e0
:020f25000be1de
:020f26000be1dd
:020f27000be2db
:020f28000be3d9
:020f29000be4d7
:020f2a000be4d6
:020f2b000be5d4
:020f2c000be6d2
:020f2d000be7d0
:020f2e000be8ce
:020f2f000be8cd
:020f30000be9cb
:020f31000beac9
:020f32000bebc7
:020f33000bebc6
:020f34000becc4
:020f35000bedc2
:020f36000beec0
:020f37000befbe
:020f38000befbd
:020f39000bf0bb
:020f3a000bf1b9
:020f3b000bf2b7
:020f3c000bf3b5
:020f3d000bf3b4
:020f3e000bf4b2
:020f3f000bf5b0
:020f40000bf6ae
:020f41000bf6ad
:020f42000bf7ab
:020f43000bf8a9
:020f44000bf9a7
:020f45000bfaa5
:020f46000bfaa4
:020f47000bfba2
:020f48000bfca0
:020f49000bfd9e
:020f4a000bfd9d
:020f4b000bfe9b
:020f4c000bff99
:020f4d000c0096
:020f4e000c0194
:020f4f000c0193
:020f50000c0291
:020f51000c038f
:020f52000c048d
:020f53000c048c
:020f54000c058a
:020f55000c0688
:020f56000c0786
:020f57000c0884
:020f58000c0883
:020f59000c0981
:020f5a000c0a7f
:020f5b000c0b7d
:020f5c000c0c7b
:020f5d000c0c7a
:020f5e000c0d78
:020f5f000c0e76
:020f60000c0f74
:020f61000c0f73
:020f62000c1071
:020f63000c116f
:020f64000c126d
:020f65000c136b
:020f66000c136a
:020f67000c1468
:020f68000c1566
:020f69000c1664
:020f6a000c1663
:020f6b000c1761
:020f6c000c185f
:020f6d000c195d
:020f6e000c1a5b
:020f6f000c1a5a
:020f70000c1b58
:020f71000c1c56
:020f72000c1d54
:020f73000c1e52
:020f74000c1e51
:020f75000c1f4f
:020f76000c204d
:020f77000c214b
:020f78000c214a
:020f79000c2248
:020f7a000c2346
:020f7b000c2444
:020f7c000c2542
:020f7d000c2541
:020f7e000c263f
:020f7f000c273d
:020f80000c283b
:020f81000c283a
:020f82000c2938
:020f83000c2a36
:020f84000c2b34
:020f85000c2c32
:020f86000c2c31
:020f87000c2d2f
:020f88000c2e2d
:020f89000c2f2b
:020f8a000c2f2a
:020f8b000c3028
:020f8c000c3126
:020f8d000c3224
:020f8e000c3322
:020f8f000c3321
:020f90000c341f
:020f91000c351d
:020f92000c361b
:020f93000c3719
:020f94000c3718
:020f95000c3816
:020f96000c3914
:020f97000c3a12
:020f98000c3a11
:020f99000c3b0f
:020f9a000c3c0d
:020f9b000c3d0b
:020f9c000c3e09
:020f9d000c3e08
:020f9e000c3f06
:020f9f000c4004
